:020000040800F2
:10000000480B00208901000807110008F50E0008C0
:10001000051100088F0200083D17000800000000CD
:100020000000000000000000000000007B14000839
:100030009102000800000000791400083115000842
:10004000A3010008A3010008A3010008A301000800
:10005000A3010008A3010008A3010008A3010008F0
:10006000A3010008A3010008A3010008A3010008E0
:10007000A3010008A3010008A3010008A3010008D0
:10008000A3010008A3010008A3010008A3010008C0
:10009000A3010008A3010008A3010008A3010008B0
:1000A000A3010008A3010008A3010008A3010008A0
:1000B00095150008A3010008A3010008A30100088A
:1000C000A3010008A3010008A3010008A301000880
:1000D000A3010008A3010008A3010008A301000870
:1000E000A3010008A3010008A301000800F002F822
:1000F00000F03AF80AA090E8000C82448344AAF188
:100100000107DA4501D100F02FF8AFF2090EBAE885
:100110000F0013F0010F18BFFB1A43F0010318473B
:10012000D0360000F0360000103A24BF78C878C1FD
:10013000FAD8520724BF30C830C144BF04680C60ED
:10014000704700000023002400250026103A28BF35
:1001500078C1FBD8520728BF30C148BF0B60704739
:100160001FB51FBD10B510BD00F058F81146FFF7C0
:10017000F7FF01F0F5FA00F076F803B4FFF7F2FFAD
:1001800003BC00F07DF8000009488047094800479B
:10019000FEE7FEE7FEE7FEE7FEE7FEE7FEE7FEE737
:1001A000FEE7FEE704480549054A064B7047000094
:1001B00093150008ED00000848050020480B0020BA
:1001C00048070020480700204FF0000200B5134602
:1001D00094469646203922BFA0E80C50A0E80C5067
:1001E000B1F12001BFF4F7AF090728BFA0E80C5018
:1001F00048BF0CC05DF804EB890028BF40F8042B11
:1002000008BF704748BF20F8022B11F0804F18BF7D
:1002100000F8012B7047704770477047754600F033
:100220002BF8AE4605006946534620F00700854688
:1002300018B020B5FFF7B6FFBDE820404FF000062C
:100240004FF000074FF000084FF0000B21F00701BE
:10025000AC46ACE8C009ACE8C009ACE8C009ACE801
:10026000C0098D46704710B50446AFF300802046A4
:10027000BDE81040FFF781BF00487047E804002048
:1002800001491820ABBEFEE7260002007047FEE7DA
:100290007047C100002001E000BF401C8842FBD332
:1002A000704772B6FEE7000070B5044600F008F92A
:1002B0000546601C02D004480078044400F000F9B0
:1002C000401BA042FAD370BD0C0000202DE9F84F6E
:1002D000DFF8B8910024A9F1040B23460F2709F198
:1002E000040AABF1040EC9E00125A5402A40AA4248
:1002F0007DD1674ED1F804C0ACEB0608B44532D0CE
:1003000014DCBCF1030F3AD009DCBCF1000F2AD099
:10031000BCF1010F1CD0BCF1020F31D11DE0BCF1CA
:10032000110F17D0BCF1120F2AD119E0B8F5881FB0
:1003300019D006DCB8F5803F15D0B8F5801F1FD165
:1003400011E0B8F5001F0ED0B8F5041F18D10AE06F
:10035000CB6815E0CB681B1D12E0CB6808330FE0BB
:10036000CB680C330CE08B682BB1012B4FF00803EA
:1003700003D0456104E0042302E0056100E00023AE
:10038000FF2A01D8064601E000F104064FEA840581
:1003900001D9A5F12005D6F8008007FA05FC28EA66
:1003A0000C0803FA05F548EA0508C6F800804D6810
:1003B000ED0062D5374DAE6946F00106AE61AD691C
:1003C00024F0030605F001050095334D06EB050CFE
:1003D000DCF80850A607360F07FA06F825EA0805E4
:1003E000DFF8B880404503D14FF0000817E044E043
:1003F000DFF8AC80404502D14FF001080FE0DFF894
:10040000A480404502D14FF0020808E0DFF8988050
:10041000404502D14FF0030801E04FF0040808FA0C
:1004200006F848EA0508CCF808804D68D9F800605D
:10043000ED024D4601D5164300E096432E604D680F
:10044000DAF80060AD02554601D5164300E0964348
:100450002E604D68DBF80060AD035D4601D51643A4
:1004600000E096432E604D68DEF80060ED037546AF
:1004700001D5164300E096432E60641C0D682A46A1
:10048000E5407FF431AFBDE8F88F0000080401407B
:10049000000011100010024000000140000801405F
:1004A000000C014000100140001401408068084029
:1004B00000D0012070470AB1016170470904FBE7D1
:1004C00001488068704700000C00002002488168E5
:1004D00002781144816070470C000020074810B575
:1004E000016841F010010160032000F075F80F2051
:1004F00000F006F800F024F8002010BD00200240B3
:1005000070B50D4D04464FF47A712878B1FBF0F0C8
:100510000A490968B1FBF0F000F0BCFA48B9102CA8
:1005200007D200222146501E00F036F800206C60F1
:1005300070BD012070BD00000C00002018000020DC
:100540000C4808B5816941F001018161816901F0C0
:1005500001010091C16941F08051C161C06900F0A1
:10056000805000900448416821F0E06141F0007142
:10057000416008BD0010024000000140002809DB76
:1005800000F01F02012191404009800000F1E020AD
:10059000C0F8001170470000F0B40E4B1B680C4609
:1005A000C3F30223C3F10705042D00D90425191D47
:1005B000072901D2002300E0DB1E012606FA05F11F
:1005C000491E214099409E40761E16403143F0BCA2
:1005D00001F0B5B80CED00E0064900F0070208682C
:1005E0004FF6FF03184040EA0220034A1043086018
:1005F000704700000CED00E00000FA052DE9F0471F
:100600000F46050061D0434E306800F00700B84245
:1006100009D2306820F0070038433060306800F0BD
:100620000700B84251D128683B4C810712D54007DA
:1006300003D5606840F4E06060602878000703D567
:10064000606840F4605060606068A96820F0F00065
:10065000084360602878C00728D06868012810D057
:100660002168022810D0890700292EDA616821F05C
:10067000030101436160FFF723FF804641F288399F
:100680000DE021688903EFE78901EDE7FFF718FF27
:10069000A0EB0801494502D90320BDE8F087606856
:1006A000696800F00C00B0EB810FEFD1306800F00A
:1006B0000700B8420BD9306820F00700384330609B
:1006C000306800F00700B84201D00120E5E7287843
:1006D000400705D56068E96820F4E0600843606081
:1006E0002878000706D56068296920F4605040EA40
:1006F000C100606000F018F86168084AC1F3031196
:10070000515CC8400649086006480068FFF7F8FEDB
:100710000020C2E70020024000100240F01D000847
:1007200018000020100000200E4A51680E4801F009
:100730000C03042B11D0082B0FD10C48C1F38343B9
:10074000C903C05C0AD55168084AC1F34041921EF2
:10075000515C054A5043B0FBF1F0704704494843EF
:10076000704700000010024000127A00E01D0008EF
:1007700000093D002DE9F84F040070D02078C04DED
:10078000C00749D06868C0F38100012807D06868B5
:10079000C0F38100022809D16868C00306D5286823
:1007A000800339D560680028E7D035E06068B0F58F
:1007B000803F0BD010B1B0F5A02F11D0286820F4E5
:1007C00080302860286820F4802002E0286840F407
:1007D00080302860606890B1FFF772FE06460AE03C
:1007E000286840F480202860F0E700BFFFF768FE2B
:1007F000801B642873D828688003F7D50CE0FFF7C6
:100800005FFE064605E000BFFFF75AFE801B642826
:10081000F0D828688003F7D420789A4E80074FF0EC
:1008200001094FF0000839D5686810F00C0F07D0A7
:100830006868C0F38100022809D16868C00306D443
:100840002868800714D52069012808D110E02069A4
:10085000B0B1C6F80090FFF733FE074605E00AE1A5
:10086000FFF72EFEC01B0228C4D828688007F7D5E2
:100870002868616920F0F80040EAC10028600DE0B6
:10088000C6F80080FFF71CFE074604E0FFF718FEDD
:10089000C01B022823D828688007F7D420780007D7
:1008A0002CD57948A169D9B1C0F80090FFF708FEAE
:1008B000074604E0FFF704FEC01B02280FD8686A51
:1008C0008007F7D571484FF4FA510068B0FBF1F09A
:1008D000009000BF0098411E0091FAD20EE080E027
:1008E000C0F80080FFF7ECFD074604E0FFF7E8FDE5
:1008F000C01B022875D8686A8007F7D420784007A3
:1009000060D5E8690027C00008D4E86940F080504D
:10091000E861E869012700F0805000905C480168B8
:10092000C90513D40168834641F480710160FFF763
:10093000C7FD824606E000BFFFF7C2FDA0EB0A003C
:1009400064284ED8DBF80000C005F5D5E068012822
:100950000AD008B1052813D0286A20F001002862C7
:10096000286A20F0040002E0286A40F001002862B2
:10097000E06841F2883B98B1FFF7A2FD82460BE0A8
:10098000286A40F004002862EEE700BFFFF798FDF8
:10099000A0EB0A0159455AD8286A8007F6D50CE021
:1009A000FFF78EFD824605E0FFF78AFDA0EB0A0106
:1009B00059454CD8286A8007F6D41FB1E86920F061
:1009C0008050E861E06988B36968C1F38101022958
:1009D00044D00228C6F8608004D0FFF771FD0446B9
:1009E00038E034E0FFF76CFD074604E0FFF768FDF0
:1009F000C01B02282BD828688001F7D4206AB0F5E4
:100A0000803F05D16868A16820F400300843686021
:100A1000D4E908010843696821F474110843686047
:100A2000C6F86090FFF74CFD044606E025E000BFE5
:100A3000FFF746FD001B022809D828688001F7D57A
:100A40001BE000BFFFF73CFD001B022802D903207A
:100A5000BDE8F88F28688001F4D40EE00128F7D0B3
:100A60006868226A00F48031914204D1616A00F41E
:100A70007010884201D00120EAE70020E8E700007A
:100A80000010024000004242800442421800002050
:100A90000070004010B5401EB0F1807F01D30120EE
:100AA00010BD4FF0E02460610F21601700F047FE99
:100AB0000020A06107202061002010BD7047704712
:100AC00070B590F83C20012A26D0012480F83C40E3
:100AD000022280F83D2003685A689D6822F0700663
:100AE0000A6832435A600D4B02689A4208D0B2F14C
:100AF000804F05D00A4B9A4202D00A4B9A4204D149
:100B0000496825F080031943916080F83D40002139
:100B100080F83C10084670BD022070BD002C0140DA
:100B2000000400400008004070472DE9F0410546F0
:100B300090F83C0000260C46012810D0012085F8D2
:100B40003C0072B1042A1CD0082A2CD00C2A50D0A8
:100B50000126002085F83C003046BDE8F0810220E7
:100B6000FBE7D4E90012E368286800F055FD286827
:100B7000816921F00C01816128688169A2681143B3
:100B80000FE0D4E90012E368286800F071FD2868DE
:100B9000816921F44061816128688169A26841EA24
:100BA00002218161D5E72868D4E9002C277B036AFC
:100BB000016A21F480710162C16923F4007321F09C
:100BC000030141EA0C0121F0F00C39074FF40077E2
:100BD0004CEA116107EA02221A43C16102622868E5
:100BE000C16921F00C01C1612868C169A268114383
:100BF0002BE02868D4E90021E768036AD0F820C018
:100C00002CF4805CC0F820C0D0F81CC023F4005342
:100C10002CF4407C4CEA012121F4704C4FF6FF711A
:100C200001EA07314FF4005741EA0C0107EA0232AA
:100C30001A43C16102622868C16921F44061C1613F
:100C40002868C169A26841EA0221C16181E710B543
:100C5000040003D094F83D0010B107E0012010BD5E
:100C6000002084F83C00204600F01EF8022084F8A2
:100C70003D00211D206800F093FC012084F846000F
:100C800084F83E0084F83F0084F8400084F8410076
:100C900084F8420084F8430084F8440084F8450056
:100CA00084F83D00002010BD00B585B00021009102
:100CB0000191029103910068B0F1804F28D115484D
:100CC000C16941F00101C161C16901F001010491F3
:100CD000816941F0040181618069694600F0040086
:100CE00004904FF4004000900B48FFF7EFFA0B48D8
:100CF000416821F4407141F0E06141F4807141604C
:100D0000002202211C20FFF747FC1C20FFF736FCC5
:100D100005B000BD00100240000801400000014085
:100D20002DE9F04104460068C66805694FF00007E8
:100D3000A90713D5B10711D5F91E0161012020774C
:100D4000206880698007204602D0FFF7EDFE04E0AE
:100D500000F07EF8204600F07CF82777680716D56B
:100D6000700714D521686FF0040008610220207715
:100D70002068806910F4407F204602D0FFF7D4FE3F
:100D800004E000F065F8204600F063F827772807B4
:100D900015D5300713D521686FF0080008610420CD
:100DA00020772068C0698007204602D0FFF7BCFE8C
:100DB00004E000F04DF8204600F04BF82777E806F5
:100DC00016D5F00614D521686FF0100008610820D0
:100DD00020772068C06910F4407F204602D0FFF7DA
:100DE000A3FE04E000F034F8204600F032F8277744
:100DF000E80708D0F00706D021686FF0010008610D
:100E0000204600F027F8280608D5300606D52168C8
:100E10006FF0800008612046FFF750FE680608D595
:100E2000700606D521686FF040000861204600F08A
:100E300012F8A8060AD5B00608D521686FF0200080
:100E400008612046BDE8F041FFF739BEBDE8F081FA
:100E500070477047704770472DE9F041224E0025DA
:100E60004FF480742A4621463046FFF724FB0220C7
:100E7000FFF70FFA012221463046FFF71CFB0A203C
:100E8000FFF707FA002221463046FFF714FB42F233
:100E9000107844464FF40046144F04E0641E1FD0FF
:100EA0000120FFF7F6F931463846FFF7FFFA002830
:100EB000F4D0444606E0641E05F1010510D001207F
:100EC000FFF7E7F931463846FFF7F0FA0128F2D08C
:100ED000284600F025FEBDE8F041054900F034BE8B
:100EE0000020BDE8F0810000000C01400008014036
:100EF00096438B3CFEE7000070B501220E4D940333
:100F000021462846FFF7D7FA0122560331462846E4
:100F1000FFF7D1FA00F048F8002221462846FFF7F3
:100F2000CAFA00F041F8002231462846FFF7C3FA1A
:100F3000BDE8704000F038B80010014070B50B4DAE
:100F40004FF48044002221462846FFF7B4FA0122DC
:100F500051032846FFF7AFFA00F026F8214628464D
:100F6000BDE870400122FFF7A6BA00000010014062
:100F700070B50C4C012291032046FFF79CFA00F05B
:100F800013F80122550329462046FFF794FA00F092
:100F90000BF8002229462046FFF78DFABDE8704085
:100FA00000F002B8001001400320401EC0B2FCD285
:100FB000704700002DE9F04385B0002000900190BB
:100FC000029003903048816941F01001816181698C
:100FD00001F010010491816941F020018161816972
:100FE00001F020010491816941F00401816181696E
:100FF00001F004010491816941F008018161806977
:10100000224F00F008004FF4C04404900122214612
:101010003846FFF750FADFF8788001224FF4F85194
:101020004046FFF748FA0122DFF868901602314681
:101030004846FFF740FA00940124032569463846E4
:101040000194CDE90245FFF741F90220009603958E
:10105000CDE9014069464046FFF738F94FF4F050BA
:10106000CDE9000469464046CDE90245FFF72EF977
:10107000CDE9006469464846CDE90245FFF726F907
:1010800005B0BDE8F08300000010024000100140F0
:1010900000080140000C014010B586B0002418483B
:1010A000059404940094019402944FF080410394B9
:1010B00001604721C0E901144FF6FF71C0E9031434
:1010C00080218161FFF7C3FD08B1FFF7EAF80494BE
:1010D00004A90B480594FFF7F3FC08B1FFF7E1F80A
:1010E0000120CDE90040029400226946044803949F
:1010F000FFF71BFD002801D0FFF7D3F806B010BDA5
:1011000020000020FEE7FEE730B40021084B0A462D
:101110005FF0000003EBC004401CC0B262548028A2
:10112000F8D3491CC9B20829F2D330BC00F08EB8FC
:101130006800002030B5CC0801F0070301259D4070
:10114000EBB2064D05EBC005C808285C0AB1184390
:1011500002E063EA0000C043285530BD680000206B
:1011600010B50021AE2000F06CF90021084600F017
:1011700068F90021102000F064F90021402000F0FF
:1011800060F90021812000F05CF90021CF2000F0FF
:1011900058F90021A12000F054F90021C82000F0E6
:1011A00050F90021A62000F04CF90021A82000F001
:1011B00048F900213F2000F044F90021D32000F03D
:1011C00040F90021084600F03CF90021D52000F04C
:1011D00038F90021802000F034F90021D92000F0F6
:1011E00030F90021F12000F02CF90021DA2000F084
:1011F00028F90021122000F024F90021DB2000F062
:1012000020F90021302000F01CF90021202000F0FE
:1012100018F90021022000F014F900218D2000F0BF
:1012200010F90021142000F00CF9FFF76DFF0021E8
:10123000BDE81040AF2000F004B90246012000E0F4
:101240005043491EC9B2FBD27047000070B5184E1A
:10125000002400BF04F1B000C0B2002100F0F1F89A
:101260000021084600F0EDF80021102000F0E9F818
:10127000FFF742FE782000F001F9FFF779FE4020E9
:1012800000F0FCF8FFF774FE5FF0000506EBC50008
:10129000005D00F0F3F8FFF76BFE6D1CEDB2802DE2
:1012A000F4D3FFF74BFE641CE4B2082CD2D370BD1C
:1012B000680000202DE9FC4F1C460E4682468B46F6
:1012C0000190082B0DD0600700D0012000EBD40066
:1012D00061084843C0B28146203AD0B20090002055
:1012E0004BE00620F7E7082C13D00C2C18D0102C5C
:1012F0001BD0182C44D10098234900EBC00000BF3C
:1013000001EB8001002711F80850E80712D00B9A72
:1013100013E000981D4900EB400001EB4001F1E7AC
:1013200000981B4900EB4000EAE71A49009801EBDE
:101330000011E7E70B9828B3002231465046FFF72B
:10134000F9FE761C7F1C6D08FFB2F6B2082FDCD3C5
:101350000AF1010000F0FF0A082C0AD00199AAEB5B
:101360000100B0EB540F04D10BF108008A4600F0E5
:10137000FF0B08F101005E46C0B280464845B2D37B
:10138000BDE8FC8F0122D8E78C2A0008001E000867
:10139000282000089C2400082DE9F84F0025DDE9ED
:1013A0000A691F4692468B468046082E00D10225C8
:1013B00000241CE0381B401EC1B20A20FFF73DFF8D
:1013C000BAFBF0F00A21B0FBF1F201FB1200CDF8FC
:1013D000009080B13030C2B205EB560101FB0480B1
:1013E000C0B233465946FFF765FF641CE4B2BC4205
:1013F000E0D3BDE8F88F05EB560101FB0480C0B2D5
:1014000033463022EEE72DE9F8411E461546884660
:101410000446079F0BE03346414620460097FFF7FE
:1014200049FF082E0AD004EB5600C4B26D1C2A787E
:10143000A2F120005E28EED9BDE8F881A41DE4B237
:10144000F4E770B50C460546FFF756FD782000F02E
:1014500015F8FFF78DFD0CB1402000E0002000F0F2
:101460000DF8FFF785FD284600F008F8FFF780FD2E
:10147000BDE87040FFF762BD704770472DE9F0414D
:10148000124F002405464FF480487E14280601D5EB
:10149000012200E0002241463846FFF70CF8FFF732
:1014A00083FD012231463846FFF705F8FFF77CFD42
:1014B000002231463846FEF7FEFF6806641C050E22
:1014C000E4B2082CE2D3BDE8F08100000010014036
:1014D00070B50446154DC0074FF4007101D00122CC
:1014E00000E000222846FEF7E6FFA0074FF48061E7
:1014F00001D5012200E000222846FEF7DCFF60074C
:101500004FF4006101D5012200E000222846FEF7D9
:10151000D2FF20074FF4805101D5012200E00022C4
:101520002846BDE87040FEF7C6BF00000008014035
:10153000FEF7CCBF30B58FB028216846FEF744FED9
:1015400014210AA8FEF740FE01210804CDE900108D
:101550000024029402250491CDE907504FF4E010D5
:1015600009906846FFF706F908B172B6FEE70F204A
:10157000CDE90A054FF48060CDE90C4002210AA8AC
:101580000E94FFF73BF8002801D072B6FEE70FB0CB
:1015900030BD70470148FFF7C3BB000020000020AA
:1015A000F0B50268194B1A4C1A4D4FF0804798421B
:1015B00005D0B84203D0A04201D0A84203D122F006
:1015C00070064A683243984205D0B84203D0A04220
:1015D00001D0A84203D122F44074CA6822434C6966
:1015E00022F08002224302608A68C2620A68826234
:1015F000984201D109690163012141610169C9076B
:1016000003D0016921F001010161F0BD002C01400E
:10161000000400400008004070B5056A046A24F028
:101620000104046284690F4EB04208D0B0F1804FCB
:1016300005D00D4EB04202D00C4EB04203D124F082
:101640000304144301E044F001041A0724F0F004F9
:1016500044EA126225F00A0301F00A01194382618B
:10166000016270BD002C01400004004000080040F1
:1016700030B5046A056A25F010050562856925F410
:10168000407545EA022222F470454FF6FF7202EAE5
:10169000033224F0A0032A43A02404EA01111943D1
:1016A0008261016230BD00000549A0F5000088425A
:1016B00003D20221082000F007B800F023B8000090
:1016C0000000204000F01EB82DE9F0418846064693
:1016D00000240A4F0A4D0DE02878385CFFF7F8FE29
:1016E0002878401C00F0070028704046FEF7DCFD1B
:1016F000641CA4B2B442EFD3BDE8F081E83700081F
:101700001C00002010B50C4C00224FF40071204644
:10171000FEF7D1FE002221152046FEF7CCFE002266
:10172000E1142046FEF7C7FE0022A1142046BDE8C2
:101730001040FEF7C0BE000000080140FEE70907A8
:10174000090E002804DB00F1E02080F80014704747
:1017500000F00F0000F1E02080F8141D7047000039
:101760000EB5FEF7BBFEFFF7E5FEFFF723FCFFF724
:1017700093FCFFF7F5FCFFF7A5FF00224FF4807103
:101780006348FEF798FEFFF7BFFC4FF00109002108
:101790004C4608235FA20846CDF80090FFF733FEC1
:1017A00008235FA2194600200094FFF72CFE0823AF
:1017B0005EA2102100200094FFF725FE08235FA2FF
:1017C000182100200094FFF71EFEFFF73FFDDFF811
:1017D0007CA1DFF87CB100BFFFF73EFB0546A0F51A
:1017E00000008046504502D24FF0010701E04FF063
:1017F000000702D24FF0010601E04FF000065C4600
:101800002846DBF8001000F037F905D16068874200
:1018100002D1A06886426BD0A660C4E900570021BF
:101820004C4608233BA20846CDF80090FFF7EBFD9D
:101830004849884536D2284600F052F980B28046A1
:1018400000F06EF9294600F04BFA434900F07CF9AC
:1018500000F046F9C0B20823029040A21946009455
:101860000020FFF7D0FD0820CDE900040146032346
:1018700042460020FFF790FD08233BA219461220A4
:101880000094FFF7C0FD0820CDE9000401460123C4
:101890001820029AFFF780FD082334A219461E2063
:1018A000009404E0082332A2194600200094FFF7B8
:1018B000AAFD4FF0080300940FB130A200E01BA274
:1018C00010210020FFF79FFD4FF0080300943EB168
:1018D0002EA218210020FFF796FDFFF7B7FC08E0C5
:1018E00016A218210020FFF78EFDFFF7AFFC02E0E3
:1018F0000EB1012200E000224FF480710448FEF78F
:10190000DAFD2846FFF7D0FE3220FEF7CDFC63E774
:101910000008014044697374616E63653A00000019
:101920002D2D2D2E2D2D20636D0000004D6F746F19
:10193000723A2053746F70202020000050756D7033
:101940003A204F6666202020200000000000204042
:1019500000000020000048430000204120202020FB
:1019600020202020202000002E000000636D0000B9
:101970002D2D2D2E2D2D20636D2020004D6F746F89
:10198000723A2052756E6E696E67000050756D7008
:101990003A204F6E202020202000000090EA010F06
:1019A00048BF81F0004100F1AC81421A3CBF801A6F
:1019B00089184FEAD0524FF07F4C1CEA410FA2EB3E
:1019C000D15318BF9CEA026F00F03B804FF0004CEF
:1019D0004CEA00204CEA012121FA03FC10EB0C0C2C
:1019E0001ED202F1FF325FEA1C2040EBC25038BF2A
:1019F00070471CF07F0F4FEA400C18BFBCF17F4FBF
:101A000038BF7047C3F12003994008BF20F00100A0
:101A1000BCF17F4F38BF7047A0F1C04000F05BB908
:101A20004FEA3C00000A40EBC25028BF1CF0FF0FF9
:101A30004FEA400CE6D018BFBCF17F4F38BF70476B
:101A4000EAE79CEA026F05D010EA5C0F08BF00F0DD
:101A50000040704710B500F0F8F800BF64FBBE3ED0
:101A6000401058BFC0F14040491058BFC1F140413B
:101A70008142EFF30080704750EA010C00F11380BF
:101A80001CF5000F58BFBCF5000F01D48842704709
:101A900007D710F5000F58BF11F5000F15D4884275
:101AA0007047894270471CF5000F04D5BCF5000F44
:101AB000F7D5814270474FF0807C1CEB400F38BF58
:101AC0001CEB410F01D28142704710B500F0BDF808
:101AD000922449004FF000504FF08051FFF7C0BFF3
:101AE000C10DD1F19E0206DB4FEA002343F0004313
:101AF00023FA02F07047004207D54FEA4001B1F1E6
:101B0000FE4F02D24FF00000704710B500F09DF874
:101B100049922480002070476FEA2000704700003F
:101B2000B0FA80F310FA03F2C3F19D030AD0D9058D
:101B300001EB1220530638BF704700F1010008BFC7
:101B400020F00100704700004FF47F0C1CEAD01217
:101B50001EBF1CEAD11392EA0C0F93EA0C0F00F09F
:101B6000478090EA010F48BF42F480724FF0004C6A
:101B70004CEA00204CEA012102EB0302A0FB011316
:101B8000A2F50002002918BF43F001035B0028BF43
:101B90004FEA330342EB22425FEA132C4CEBC25074
:101BA0002EBFBCEB436FB2F57C0F70474FEA036C5E
:101BB000BCF1004F08BF20F00100B2F57C0F38BF28
:101BC00070470BD582F0FF0212F5803FC8BF704707
:101BD00000F1C040D8BF00F00040704700F5000C95
:101BE0005FEA4C0C48BF7047B0F1C04000F073B8DA
:101BF00090EA010F0CEAD11348BF42F480726245AB
:101C000038BF634504D280EA010000F0004070470D
:101C100010B500F01AF800BF8900013E00F007B8C7
:101C200000F009B85FEA410C5FEA1C6C08D080EA5A
:101C3000010000F050B85FEA400C5FEA1C6CF6D17E
:101C40004FF00040A0F5800070470EF1020E2EF01C
:101C5000030E5EF8044B244204D44FEA4102B2F171
:101C60007F4F11D84FEA4003B3F17F4F0CD80ED10C
:101C70004FEAD07CB2F17F4F0CEB4C0C0CF1020C14
:101C800008BF4CEBD17C04E04FF0080C01E04FEAB8
:101C9000D17C0CEB4C0324FA03F404F00704B4F1F8
:101CA000040C06D20EEB840CBDE810404CF0010C85
:101CB0006047DFE80CF0070802024FF00040A0F593
:101CC000800010BD0846420018BFD2F1807288BF64
:101CD00000F0004010BDFF2141EAD050C005704720
:101CE00080F0004090EA010F7FF55FAE81F0004187
:101CF00000F007B890EA010F48BF81F000413FF5BE
:101D000054AE421A04D882F00042A0EB0200114403
:101D10004FEAD0524FF07F4C1CEA410FA2EBD15357
:101D200018BF9CEA026F4AD04FF0004C4CEA0020EA
:101D30004CEA012121FA03FCB0EB0C0C0FD412F099
:101D4000FE0F36D05FEA4C001DD5001240EBC250AA
:101D500038BF70471CF03F0F18BF70470BE0A2F16F
:101D600001025FEA1C2040EBC25038BF70471CF0F4
:101D70007F0F18BF7047C3F12003994014BF401E66
:101D800020F00100704780084FEA122308BF704717
:101D9000B0FA80FCA2EB0C02CCF1280C60FA0CF03B
:101DA00093EA122F04BF00EBC25070474FEAC37092
:101DB0007047130A5FEADC1008BF7047F6E79CEA39
:101DC000026F04D010EA5C0F08BF0020704710B506
:101DD000FFF73BFF40DFF63E81F000407047010215
:101DE00002030405060708090A0B0C0D0E0F10105C
:101DF00000000000000000000102030406070809BB
:101E00000000000000000000002F0000000007009C
:101E1000070000147F147F1400242A7F2A12006216
:101E200064081323003649552250000005030000C2
:101E300000001C224100000041221C000014083E4A
:101E400008140008083E0808000000A06000000810
:101E50000808080800006060000000201008040264
:101E6000003E5149453E0000427F40000042615122
:101E70004946002141454B31001814127F100027BC
:101E800045454539003C4A4949300001710905037F
:101E900000364949493600064949291E00003636B0
:101EA0000000000056360000000814224100001413
:101EB00014141414000041221408000201510906F0
:101EC00000324959513E007C1211127C007F494971
:101ED0004936003E41414122007F4141221C007FA2
:101EE00049494941007F09090901003E4149497AB0
:101EF000007F0808087F0000417F4100002040412A
:101F00003F01007F08142241007F40404040007F95
:101F1000020C027F007F0408107F003E4141413ED9
:101F2000007F09090906003E4151215E007F091921
:101F300029460046494949310001017F0101003F1E
:101F40004040403F001F2040201F003F4038403F9E
:101F50000063140814630007087008070061514902
:101F6000454300007F41410000552A552A55000095
:101F700041417F0000040201020400404040404013
:101F8000000001020400002054545478007F4844AB
:101F9000443800384444442000384444487F0038E2
:101FA0005454541800087E0901020018A4A4A47C0B
:101FB000007F080404780000447D400000408084D5
:101FC0007D00007F102844000000417F4000007C1D
:101FD00004180478007C0804047800384444443829
:101FE00000FC242424180018242418FC007C080475
:101FF000040800485454542000043F444020003C4E
:102000004040207C001C2040201C003C4030403CD4
:10201000004428102844001CA0A0A07C0044645464
:102020004C441414141414140000000000000000A8
:10203000000000000000FC000000000002000000A2
:10204000000C020C020000000000000090D0BCD088
:10205000BC900003000300001824FE448C0003021F
:10206000070201001824D8B04C80000300010201CF
:10207000C038E438E0000102020102020806000054
:102080000000000000000000000000F80402000052
:1020900000010204000204F8000000040201000034
:1020A0009060F86090000000010000002020FC20FB
:1020B00020000000010000000000000000000806F1
:1020C0000000000020202020200000000000000070
:1020D0000000000000000002000000000080601C02
:1020E0000200040300000000F8040404F8000102E8
:1020F000020201000008FC000000000203020000D0
:102100001884442418000302020202000804242454
:10211000D80001020202010040B088FC80000000EB
:10212000000302003C242424C40001020202010036
:10213000F824242CC0000102020201000C04E41C5B
:102140000400000003000000D8242424D800010269
:102150000202010038444444F80000030202010076
:10216000000010000000000002000000000020003D
:10217000000000000600000000205088040200005B
:10218000000001029090909090000000000000007C
:102190000002048850200002010000001804C4243A
:1021A0001800000002000000F804E494F8000102A6
:1021B0000202020000E09CF0800002030000030223
:1021C00004FC2424D800020302020100F8040404E1
:1021D0000C0001020202010004FC0404F8000203E6
:1021E0000202010004FC24740C000203020203003A
:1021F00004FC24740C00020302000000F0080444F4
:10220000CC4000010202010004FC2020FC04020377
:10221000000003020404FC040400020203020200A2
:10222000000404FC040406040403000004FC24D09D
:102230000C0402030200030204FC04000000020379
:1022400002020203FC3CC03CFC000300030003004C
:1022500004FC30C4FC04020302000300F80404047C
:10226000F80001020202010004FC24241800020309
:1022700002000000F8848404F8000102020705004F
:1022800004FC24649800020302000302182424447E
:102290008C000302020201000C04FC040C0000028A
:1022A0000302000004FC0000FC0400010202010023
:1022B000047C80E01C040000030000001CE03CE003
:1022C0001C00000300030000049C609C0400020347
:1022D00000030200041CE01C0400000203020000D2
:1022E0000C84641C04000203020203000000FE02CE
:1022F0000200000007040400000E30C000000000CF
:1023000000010200000202FE0000000404070000B9
:1023100000040204000000000000000000000000B3
:10232000000008080808080800000200000000007B
:10233000000000000040A0A0C00000010202030253
:1023400004FC2020C00000030202010000C0202085
:10235000600000010202020000C02024FC00000115
:102360000202030200C0A0A0C0000001020202009D
:102370000020F82424040002030202000040A0A070
:10238000602000070A0A0A0404FC2020C00002039F
:10239000020003020020E40000000002030200002B
:1023A000000020E4000008080807000004FC80E0AA
:1023B00020200203020003020404FC0000000202C9
:1023C00003020200E020E020C0000300030003003D
:1023D00020E02020C00002030200030200C02020F1
:1023E000C00000010202010020E02020C000080F10
:1023F0000A02010000C02020E0000001020A0F08CC
:1024000020E0402020000203020000000060A0A0A5
:1024100020000002020203000020F820000000005B
:102420000102020020E00020E0000001020203029D
:1024300020E0208060200000030100006080E08038
:1024400060000003000300002060806020000203A1
:102450000003020020E0208060200808070100003F
:102460000020A0602000000203020200000020DE25
:102470000200000000070400000000FF0000000050
:10248000000F00000002DE20000000040700000032
:10249000020102040402000000000000000000002D
:1024A000000000000000000000000000000000F834
:1024B00000000000000000333000000000100C0697
:1024C000100C0600000000000000000040C0784032
:1024D000C0784000043F04043F040400007088FCFE
:1024E00008300000001820FF211E0000F008F00056
:1024F000E018000000211C031E211E0000F00888C7
:10250000700000001E2123241927211010160E0030
:10251000000000000000000000000000000000E0DB
:1025200018040200000000071820400000020418F0
:10253000E00000000040201807000000404080F04C
:10254000804040000202010F01020200000000F082
:10255000000000000101011F010101000000000056
:102560000000000080B070000000000000000000CB
:102570000000000000010101010101010000000054
:1025800000000000003030000000000000000000EB
:1025900080601804006018060100000000E01008C8
:1025A0000810E000000F102020100F00001010F89D
:1025B000000000000020203F2020000000700808DC
:1025C000088870000030282422213000003008885C
:1025D000884830000018202020110E000000C02084
:1025E00010F8000000070424243F240000F80888A5
:1025F000880808000019212020110E0000E0108832
:1026000088180000000F112020110E000038080863
:10261000C83808000000003F000000000070880873
:1026200008887000001C222121221C0000E01008F4
:102630000810E0000000312222110F00000000C04D
:10264000C0000000000000303000000000000080EA
:1026500000000000000080600000000000008040DA
:1026600020100800000102040810200040404040F3
:102670004040400004040404040404000008102046
:10268000408000000020100804020100007048088B
:102690000808F0000000003036010000C030C828F3
:1026A000E810E0000718272423140B000000C038AE
:1026B000E0000000203C23020227382008F8888828
:1026C00088700000203F202020110E00C030080834
:1026D00008083800071820202010080008F808080B
:1026E0000810E000203F202020100F0008F8888804
:1026F000E8081000203F20202320180008F88888D0
:10270000E8081000203F200003000000C030080847
:102710000838000007182020221E020008F80800D0
:102720000008F808203F210101213F20000808F897
:10273000080800000020203F2020000000000808BA
:10274000F8080800C08080807F00000008F888C07A
:1027500028180800203F20012638200008F808002B
:1027600000000000203F20202020300008F8F80062
:10277000F8F80800203F003F003F200008F830C074
:102780000008F808203F200007183F00E010080864
:102790000810E0000F10202020100F0008F8080893
:1027A0000808F000203F210101010000E0100808A6
:1027B0000810E0000F18242438504F0008F88888CB
:1027C00088887000203F2000030C302000708808AB
:1027D000080838000038202121221C00180808F8B9
:1027E000080818000000203F2000000008F808003A
:1027F0000008F808001F202020201F00087888000B
:1028000000C83808000007380E010000F80800F87A
:102810000008F800033C0700073C03000818688024
:102820008068180820302C03032C30200838C8009A
:10283000C83808000000203F2000000010080808E9
:10284000C83808002038262120201800000000FE8B
:10285000020202000000007F40404000000C30C037
:1028600000000000000000010638C0000002020263
:10287000FE000000004040407F0000000000040215
:102880000202040000000000000000000000000040
:102890000000000080808080808080800002020430
:1028A0000000000000000000000000000000808028
:1028B000808000000019242222223F2008F8008096
:1028C00080000000003F112020110E000000008059
:1028D00080800000000E11202020110000000080E8
:1028E0008088F800000E112020103F20000080801A
:1028F00080800000001F222222221300008080F02E
:10290000888888180020203F202000000000808058
:1029100080808000006B94949493600008F800809D
:1029200080800000203F210000203F2000809898F8
:10293000000000000020203F202000000000008058
:102940009898000000C08080807F000008F8000098
:1029500080808000203F24022D302000000808F8ED
:10296000000000000020203F2020000080808080A8
:1029700080808000203F20003F20003F808000803A
:1029800080800000203F210000203F200000808048
:1029900080800000001F202020201F0080800080F9
:1029A0008000000080FFA12020110E0000000080A8
:1029B00080808000000E112020A0FF808080800099
:1029C0008080800020203F212000010000008080C6
:1029D000808080000033242424241900008080E0BB
:1029E000808000000000001F202000008080000088
:1029F00000808000001F202020103F208080800069
:102A00000080808000010E30080601008080008078
:102A1000008080800F300C030C300F00008080009D
:102A2000808080000020312E0E31200080808000C8
:102A30000080808080818E70180601000080808078
:102A4000808080000021302C222130000000000016
:102A5000807C020200000000003F404000000000B7
:102A6000FF00000000000000FF0000000002027CE8
:102A7000800000000040403F00000000000601010F
:102A8000020204040000000000000000000000003A
:102A90000000000000000000000000000000000036
:102AA0000000000000000000000000000000000026
:102AB0000000000000F0F0F0000000000000000046
:102AC00000017F010000000000000000001C1C1C31
:102AD0000000000000008060301C8C60301C0C0086
:102AE00000000000000000000000000000000000E6
:102AF0000000000000000000000000E000000000F6
:102B000000E000000086E69F86868686E69F8600B7
:102B100000011F01010101011F010100000080C02F
:102B20006020F820E0C00000000003070C18FF70D0
:102B3000E18100000000070F10107F100F07000058
:102B40008060206080000000E02000000F30203016
:102B50009F70DC371030C0000000100E0300071813
:102B6000101807000000C02020E0C0000000000096
:102B700080E01F38E88703C43C040000070F1810EA
:102B8000100B070D1010080000808C4C380000005E
:102B90000000000000000000000000000000000035
:102BA0000000000000000000000000000000000025
:102BB000000080E0300804000000000000FEFF017B
:102BC00000000000000000000000030F182040007B
:102BD00000040830E0800000000000000000000059
:102BE00001FFFE0000000000004020180F0300005D
:102BF00000000000000000000000C0000000000015
:102C0000004266663C18FF183C6666420000000001
:102C10000000030000000000000000000000800031
:102C200000000000001010101010FF101010101005
:102C30000000000000000300000000000000000091
:102C40000000000000000000000000000000000084
:102C50000000000000808C4C3800000000000000E4
:102C60000000000000000000000000000010101034
:102C700010101010101010000000000000000000E4
:102C80000000000000000000000000000000000044
:102C900000000000000000000000000000001C1CFC
:102CA0001C00000000000000000000000000000008
:102CB000E0380C000000000080701C0300000000E1
:102CC0000060380E0100000000000000000080C01D
:102CD00060202060C080000000FEFF0100000000B6
:102CE00001FFFE000001070E181010180E0701006A
:102CF0000000808080C0E0000000000000000000B4
:102D000000FFFF000000000000001010101F1F1047
:102D1000101000000080402020202060C0800000B3
:102D200000030300804020381F070000001C1A1910
:102D300018181818181F00000080C020202060C03C
:102D400080000000000303001010182FE78000002F
:102D500000070F10101010180F07000000000000EF
:102D60000000C0E0F000000000C0B088868180FF55
:102D7000FF808000000000000010101F1F101000D6
:102D80000000E060606060606060000000003F1074
:102D900008080818F0E0000000070B101010101CC5
:102DA0000F030000000080C040202020E0C0000091
:102DB00000FCFF211008080818F0E0000001070CD3
:102DC00018101010080F03000000C0E06060606081
:102DD00060E06000000003000000E0180700000051
:102DE00000000000001F1F00000000000080C06005
:102DF0002020202060C080000087EF2C1818303081
:102E000068CF830000070F0810101010180F07007C
:102E10000000C0C020202020C0800000001F3F60B4
:102E20004040402010FFFE0000000C1C1010100855
:102E30000F03000000000000000000000000000080
:102E400000000000000E0E0E000000000000000058
:102E5000001C1C1C0000000000000000000000001E
:102E60000000000000000000000C0C00000000004A
:102E700000000000005838000000000000000000C2
:102E80000000008040201000000010284482010053
:102E90000000000000000000000001020408100013
:102EA0000000000000000000000000000084848496
:102EB0008484848484848400000000000000000076
:102EC0000000000000001020408000000000000012
:102ED00000000000000001824428100000001008DB
:102EE000040201000000000000C02020101010109B
:102EF00030E0C0000003030000F010080C070300DE
:102F0000000000001C1C1C0000000000000000C0AD
:102F1000406020202040C00000FCFF01F00E03C1F3
:102F2000FE03807F0001070E081111101109040231
:102F30000000000080E0E000000000000000807C55
:102F40004340477FF880000010181F100000000069
:102F5000131F1C1020E0E02020202060C080000013
:102F600000FFFF10101010182FE78000101F1F1017
:102F700010101010180F0700000080C04020202003
:102F80002060E00000FCFF010000000000000100E4
:102F90000001070E181010100804030020E0E020C4
:102FA00020202040C080000000FFFF000000000043
:102FB00001FFFE00101F1F10101018080E0701005F
:102FC00020E0E020202020202060800000FFFF1073
:102FD0001010107C00000000101F1F1010101010A7
:102FE0001018060020E0E0202020202060608000F3
:102FF00000FFFF101010107C00000100101F1F10B8
:103000000000000000000000000080C060202020C0
:1030100040E0000000FCFF0100004040C0C1404013
:103020000001070E181010100F0F000020E0E02024
:103030000000000020E0E02000FFFF101010101042
:1030400010FFFF00101F1F1000000000101F1F10B6
:103050000000202020E0E0202020000000000000F0
:1030600000FFFF000000000000001010101F1F10E4
:103070001010000000000000202020E0E0202020B0
:1030800000000000000000FFFF0000000060E08082
:103090008080C07F3F00000020E0E020000020A0F2
:1030A0006020200000FFFF30187CE3C0000000001B
:1030B000101F1F10000001131F1C181020E0E0203B
:1030C000000000000000000000FFFF000000000002
:1030D00000000000101F1F10101010101018060024
:1030E00020E0E0E000000000E0E0E02000FF013F21
:1030F000FEC0E01E01FFFF00101F1000031F0300B1
:10310000101F1F1020E0E0C0000000000020E020A1
:1031100000FF0003071C78E08000FF00101F100074
:1031200000000000030F1F00000080C0602020602E
:10313000C080000000FEFF010000000000FFFE0054
:103140000001070E181010180C07010020E0E02005
:103150002020202060C0800000FFFF2020202020B1
:10316000301F0F00101F1F100000000000000000A3
:10317000000080C060202060C080000000FEFF01D1
:103180000000000000FFFE000001070E1111133CBB
:103190007C67210020E0E0202020202060C080000B
:1031A00000FFFF101030F0D0080F0700101F1F1095
:1031B000000000030F1C10100080C06020202020A1
:1031C0004040E00000070F0C1818303060E081002C
:1031D000001F0C0810101010180F0700806020202E
:1031E00020E0E020202060800100000000FFFF00C0
:1031F0000000000100000000101F1F100000000070
:1032000020E0E020000000000020E02000FFFF00A0
:10321000000000000000FF0000070F181010101041
:10322000100807002060E0E02000000020E060209F
:103230000000077FF88000807C0300000000000091
:10324000071F1C070000000020E0E02000E0E02055
:103250000020E0200007FFF8E01FFFFCE01F000057
:103260000000031F0300011F03000000002060E0B6
:10327000A0000020E0602000000000038F7CF8C662
:10328000010000000010181E130001171F18100085
:103290002060E0E02000000020E060200000010746
:1032A0003EF8E0180700000000000010101F1F107B
:1032B0001000000000806020202020A0E0E020001E
:1032C00000000000C0F03E0F0300000000101C1FB3
:1032D00017101010101806000000000000FC040475
:1032E000040404000000000000FF000000000000D3
:1032F00000000000007F404040404000000010E01F
:10330000000000000000000000000000031C6080BE
:103310000000000000000000000000030C708000AE
:1033200000000404040404FC00000000000000008D
:10333000000000FF00000000000040404040407FCF
:103340000000000000000010080C040C0810000031
:10335000000000000000000000000000000000006D
:10336000000000000000000000000000000000005D
:10337000000000000000000000000000000000004D
:103380008080808080808080808080800000000439
:103390000408080000000000000000000000000019
:1033A000000000000000000000000000000000001D
:1033B000000000000000000000000000000098D89D
:1033C00044642424FCF80000000F1F18101010089B
:1033D0001F1F10180020E0F0000000000000000097
:1033E0000000FFFF180804040CF8F00000001F0F95
:1033F00018101010180F030000000000000000005B
:103400000000000000E0F8180404043C380000004C
:1034100000030F0C10101010080600000000000040
:1034200000000020E0F0000000E0F81C04040408A4
:10343000FFFF000000030F18101010081F0F0800F6
:103440000000000000000000000000000000E0F8A4
:10345000484444444C7870000000030F0C181010CE
:10346000100804000000000080C0602020E0C000C0
:1034700000040404FFFF0404040400000000101012
:103480001F1F1010100000000000000000000000CE
:1034900000000000000070F88C04048CF874040C28
:1034A000007076CF8D8D8D89C87870000020E0F097
:1034B00000000000000000000000FFFF08040404FA
:1034C000FCF8000000101F1F100000101F1F10004C
:1034D0000000000000606000000000000000040424
:1034E00004FCFC000000000000001010101F1F1062
:1034F00010100000000000000000006060000000EC
:1035000000000000040404FCFC0000000000C0C037
:103510008080C07F3F0000000020E0F0000000003D
:10352000000000000000FFFF80C0F41C0404000045
:1035300000101F1F1100031F1C101000000020208E
:1035400020E0F000000000000000000000FFFF008D
:103550000000000000001010101F1F1010100000CD
:1035600000000000000000000000000004FCFC0857
:1035700004FCFC0804FCFC00101F1F10001F1F109F
:10358000001F1F10000000000000000000000000ED
:103590000004FCFC08080404FCF8000000101F1FD5
:1035A000100000101F1F10000000000000000000AD
:1035B0000000000000E0F0180C04040C18F0E0001B
:1035C00000030F0C101010100C0F0300000000007F
:1035D00000000000000000000004FCFC08040404DB
:1035E0000CF8F0000080FFFF889010101C0F030003
:1035F00000000000000000000000000000E0F81CD7
:1036000004040408F8FC000000030F181010908850
:10361000FFFF80000000000000000000000000002C
:10362000040404FCFC100804040C0C001010101F0F
:103630001F1010100000000000000000000000003B
:103640000000000000003078CCC48484840C1C008E
:1036500000001E1810101011190F060000000000C5
:1036600000C000000000000000040404FFFF040488
:1036700004000000000000000F1F1010100C0000DC
:103680000000000000000000000000000004FCFE3C
:1036900000000004FCFE000000000F1F18101008BE
:1036A0001F0F0800000000000000000000000000E4
:1036B00000040C3CFCC40000C43C0C0400000000EE
:1036C000010F1E0E010000000000000000000000BD
:1036D00000000000043CFCC400E47CFC84807C040A
:1036E0000000071F070000071F0700000000000080
:1036F00000000000000000000004041C7CE4C03452
:103700001C0404000010101C1601131F1C181000CC
:1037100000000000000000000000000000040C3C5D
:10372000FCC400C43C0404000000C080C1370E018A
:103730000000000000000000000000000000000089
:1037400000001C0404C4F47C1C0400000000101CD5
:103750001F17111010180E0000000000000000F8E4
:103760000C04000000000000001028EF0000000022
:10377000000000000000003F60400000000000006A
:103780000000FF0000000000000000000000FF003B
:1037900000000000000000000000FF00000000002A
:1037A0000000040CF8000000000000000000000011
:1037B000EF28100000000000000040603F00000003
:1037C0000000000000180602020408102020300843
:1037D00000000000000000000000000000000000E9
:1037E000000000000000000001030206040C0809AC
:1037F0001038000800000020200000002801000808
:103800003038000820000020280B00004401000888
:10381000000080BFFFFFFFFFFFFFFFFF0100000070
:10382000100000000000000000127A0000000000FC
:04000005080000ED02
:00000001FF
